:184400000001000001000000624A00000C4A000000440000001C000040
:20460000B24000A56001B24048006201B24033016401B24030006601C24361011001B24087
:2046200000A56001B2400C006201B24033016401B24020006601C24361011001B24000A500
:204640006001B24006006201B24033016401B24020006601C24361011001B24000A560012A
:20466000A2436201B24033016401B24010006601C24361011001B24000A560018243620166
:20468000B2403301640182436601C243610110010443444C0C43100103430343034303439C
:2046A00003430343034303430343034354B33320073C0343034303430343034303430343CF
:2046C000073C0343034303430343034303430343073C034303430343034303430343034380
:2046E000073C0343034303430343034303430343073C034303430343034303430343034360
:20470000073C0343034303430343034303430343CD3F034303431001034354B32A20053CEB
:20472000034303430343034303430343063C0343034303430343034303430343063C034321
:20474000034303430343034303430343063C0343034303430343034303430343063C034301
:20476000034303430343034303430343D63F0343034310010343034314B32320053C0343C6
:20478000034303430343034303430343053C0343034303430343034303430343053C0343C3
:2047A000034303430343034303430343053C0343034303430343034303430343DD3F0343C8
:2047C0000343100103430343034303430343034354B30120FD3F10013A1418411400B013EB
:2047E000A248694B1C530D633A3C1C530D63089315243B900001122C2743CA0D0F184A5AFD
:2048000000184ADC6A4A4A4A4B4B8B100BDA1C530D631783F223023C2B920928CA0D0F1844
:204820004A5A00184ADC674A1C530D630B3CC709093CCA0F0F184A5A00184ADECA470000B5
:204840001E530F631B833B93F423093CCB0F0F184B5B00184BDECB4A00001E530F63B0130A
:20486000A2486A4B1C530D634A99F023B013A2486B4B4B4B1C530D630B93CE23B013A248B0
:204880006B4B4B4B4B4B8B101C530D63CA0D0F184A5A00184ADC6A4A4A4A0B5AA623371619
:2048A0001001CB0D0F184B5B00184BDC10011A143F4010443F90094422283F4018443F90E1
:2048C00011441D283A4018443A8010443A5007005A09394010443C493D49CF0D0F184F5FDD
:2048E00000184FDC6F4F4F4F5F0600185B4F08441C530D633E493F494B131A83EC233F402F
:2049000000003F90000008243A400000023C6A132A523A900000FB2319161001C2430402B8
:20492000C2430202F2430602C2430502C2430302F2430702C2432402C2432202F24326022C
:20494000C2432502C2432302F24327028243240382432203B240FF002603F240A50061017A
:2049600082436201B2F0BFFF6201B2403301640182436601B24001016801B2F0FCFF6A0130
:204980001001B240805A5C01B0131C49B0137646F2D003000402F2F0FC000202B240100087
:2049A0004203B240409C5203B2401001400332D28293001CFD27F2E0030002020D143D4079
:2049C00032821D83FE230D16F33F03430A141A4108001B410A000F184D5D00184DDC0F18A7
:2049E0004F5F00184FDE0B9302200A930D240C430E43AD000100FD4FFFFF1C530E630E9B15
:204A0000F82B02200C9AF52B0A1610010A142182CB0CCA0DCC0ECD0FCE0BCF0ACA0ECB0FD1
:204A20001A530B630F184B5B00184BDA1A4B0200A14B0000814A02003E5005000F63B013A9
:204A4000CC4921520A16100131400024B0137C4A0C930224B013AE480C43B0138249B01361
:204A6000804A218391430000B013D8472153100192E3001CF2F0FC00020200131C43100197
:044A80000343FF3FAE
:02FFEA00704A5B
:02FFFE00484A6F
:00000001FF
